{
  "contractName": "Cryptonauts",
  "abi": [
    {
      "inputs": [
        {
          "internalType": "address payable",
          "name": "_wallet",
          "type": "address"
        }
      ],
      "stateMutability": "nonpayable",
      "type": "constructor"
    },
    {
      "anonymous": false,
      "inputs": [
        {
          "indexed": true,
          "internalType": "address",
          "name": "owner",
          "type": "address"
        },
        {
          "indexed": true,
          "internalType": "address",
          "name": "approved",
          "type": "address"
        },
        {
          "indexed": true,
          "internalType": "uint256",
          "name": "tokenId",
          "type": "uint256"
        }
      ],
      "name": "Approval",
      "type": "event"
    },
    {
      "anonymous": false,
      "inputs": [
        {
          "indexed": true,
          "internalType": "address",
          "name": "owner",
          "type": "address"
        },
        {
          "indexed": true,
          "internalType": "address",
          "name": "operator",
          "type": "address"
        },
        {
          "indexed": false,
          "internalType": "bool",
          "name": "approved",
          "type": "bool"
        }
      ],
      "name": "ApprovalForAll",
      "type": "event"
    },
    {
      "anonymous": false,
      "inputs": [
        {
          "indexed": true,
          "internalType": "uint256",
          "name": "_tokenId",
          "type": "uint256"
        },
        {
          "indexed": false,
          "internalType": "bytes32",
          "name": "hash",
          "type": "bytes32"
        }
      ],
      "name": "Mined",
      "type": "event"
    },
    {
      "anonymous": false,
      "inputs": [
        {
          "indexed": true,
          "internalType": "address",
          "name": "previousOwner",
          "type": "address"
        },
        {
          "indexed": true,
          "internalType": "address",
          "name": "newOwner",
          "type": "address"
        }
      ],
      "name": "OwnershipTransferred",
      "type": "event"
    },
    {
      "anonymous": false,
      "inputs": [
        {
          "indexed": true,
          "internalType": "address",
          "name": "from",
          "type": "address"
        },
        {
          "indexed": true,
          "internalType": "address",
          "name": "to",
          "type": "address"
        },
        {
          "indexed": true,
          "internalType": "uint256",
          "name": "tokenId",
          "type": "uint256"
        }
      ],
      "name": "Transfer",
      "type": "event"
    },
    {
      "inputs": [],
      "name": "LAST_HASH",
      "outputs": [
        {
          "internalType": "bytes32",
          "name": "",
          "type": "bytes32"
        }
      ],
      "stateMutability": "view",
      "type": "function",
      "constant": true
    },
    {
      "inputs": [
        {
          "internalType": "address",
          "name": "to",
          "type": "address"
        },
        {
          "internalType": "uint256",
          "name": "tokenId",
          "type": "uint256"
        }
      ],
      "name": "approve",
      "outputs": [],
      "stateMutability": "nonpayable",
      "type": "function"
    },
    {
      "inputs": [
        {
          "internalType": "address",
          "name": "owner",
          "type": "address"
        }
      ],
      "name": "balanceOf",
      "outputs": [
        {
          "internalType": "uint256",
          "name": "",
          "type": "uint256"
        }
      ],
      "stateMutability": "view",
      "type": "function",
      "constant": true
    },
    {
      "inputs": [
        {
          "internalType": "uint256",
          "name": "tokenId",
          "type": "uint256"
        }
      ],
      "name": "getApproved",
      "outputs": [
        {
          "internalType": "address",
          "name": "",
          "type": "address"
        }
      ],
      "stateMutability": "view",
      "type": "function",
      "constant": true
    },
    {
      "inputs": [
        {
          "internalType": "address",
          "name": "owner",
          "type": "address"
        },
        {
          "internalType": "address",
          "name": "operator",
          "type": "address"
        }
      ],
      "name": "isApprovedForAll",
      "outputs": [
        {
          "internalType": "bool",
          "name": "",
          "type": "bool"
        }
      ],
      "stateMutability": "view",
      "type": "function",
      "constant": true
    },
    {
      "inputs": [],
      "name": "name",
      "outputs": [
        {
          "internalType": "string",
          "name": "",
          "type": "string"
        }
      ],
      "stateMutability": "view",
      "type": "function",
      "constant": true
    },
    {
      "inputs": [],
      "name": "owner",
      "outputs": [
        {
          "internalType": "address",
          "name": "",
          "type": "address"
        }
      ],
      "stateMutability": "view",
      "type": "function",
      "constant": true
    },
    {
      "inputs": [
        {
          "internalType": "uint256",
          "name": "tokenId",
          "type": "uint256"
        }
      ],
      "name": "ownerOf",
      "outputs": [
        {
          "internalType": "address",
          "name": "",
          "type": "address"
        }
      ],
      "stateMutability": "view",
      "type": "function",
      "constant": true
    },
    {
      "inputs": [],
      "name": "renounceOwnership",
      "outputs": [],
      "stateMutability": "nonpayable",
      "type": "function"
    },
    {
      "inputs": [
        {
          "internalType": "address",
          "name": "from",
          "type": "address"
        },
        {
          "internalType": "address",
          "name": "to",
          "type": "address"
        },
        {
          "internalType": "uint256",
          "name": "tokenId",
          "type": "uint256"
        }
      ],
      "name": "safeTransferFrom",
      "outputs": [],
      "stateMutability": "nonpayable",
      "type": "function"
    },
    {
      "inputs": [
        {
          "internalType": "address",
          "name": "from",
          "type": "address"
        },
        {
          "internalType": "address",
          "name": "to",
          "type": "address"
        },
        {
          "internalType": "uint256",
          "name": "tokenId",
          "type": "uint256"
        },
        {
          "internalType": "bytes",
          "name": "_data",
          "type": "bytes"
        }
      ],
      "name": "safeTransferFrom",
      "outputs": [],
      "stateMutability": "nonpayable",
      "type": "function"
    },
    {
      "inputs": [
        {
          "internalType": "address",
          "name": "operator",
          "type": "address"
        },
        {
          "internalType": "bool",
          "name": "approved",
          "type": "bool"
        }
      ],
      "name": "setApprovalForAll",
      "outputs": [],
      "stateMutability": "nonpayable",
      "type": "function"
    },
    {
      "inputs": [
        {
          "internalType": "bytes4",
          "name": "interfaceId",
          "type": "bytes4"
        }
      ],
      "name": "supportsInterface",
      "outputs": [
        {
          "internalType": "bool",
          "name": "",
          "type": "bool"
        }
      ],
      "stateMutability": "view",
      "type": "function",
      "constant": true
    },
    {
      "inputs": [],
      "name": "symbol",
      "outputs": [
        {
          "internalType": "string",
          "name": "",
          "type": "string"
        }
      ],
      "stateMutability": "view",
      "type": "function",
      "constant": true
    },
    {
      "inputs": [
        {
          "internalType": "uint256",
          "name": "index",
          "type": "uint256"
        }
      ],
      "name": "tokenByIndex",
      "outputs": [
        {
          "internalType": "uint256",
          "name": "",
          "type": "uint256"
        }
      ],
      "stateMutability": "view",
      "type": "function",
      "constant": true
    },
    {
      "inputs": [
        {
          "internalType": "address",
          "name": "owner",
          "type": "address"
        },
        {
          "internalType": "uint256",
          "name": "index",
          "type": "uint256"
        }
      ],
      "name": "tokenOfOwnerByIndex",
      "outputs": [
        {
          "internalType": "uint256",
          "name": "",
          "type": "uint256"
        }
      ],
      "stateMutability": "view",
      "type": "function",
      "constant": true
    },
    {
      "inputs": [
        {
          "internalType": "uint256",
          "name": "tokenId",
          "type": "uint256"
        }
      ],
      "name": "tokenURI",
      "outputs": [
        {
          "internalType": "string",
          "name": "",
          "type": "string"
        }
      ],
      "stateMutability": "view",
      "type": "function",
      "constant": true
    },
    {
      "inputs": [],
      "name": "totalSupply",
      "outputs": [
        {
          "internalType": "uint256",
          "name": "",
          "type": "uint256"
        }
      ],
      "stateMutability": "view",
      "type": "function",
      "constant": true
    },
    {
      "inputs": [
        {
          "internalType": "address",
          "name": "from",
          "type": "address"
        },
        {
          "internalType": "address",
          "name": "to",
          "type": "address"
        },
        {
          "internalType": "uint256",
          "name": "tokenId",
          "type": "uint256"
        }
      ],
      "name": "transferFrom",
      "outputs": [],
      "stateMutability": "nonpayable",
      "type": "function"
    },
    {
      "inputs": [
        {
          "internalType": "address",
          "name": "newOwner",
          "type": "address"
        }
      ],
      "name": "transferOwnership",
      "outputs": [],
      "stateMutability": "nonpayable",
      "type": "function"
    },
    {
      "inputs": [
        {
          "internalType": "address payable",
          "name": "_newWallet",
          "type": "address"
        }
      ],
      "name": "changeWallet",
      "outputs": [],
      "stateMutability": "nonpayable",
      "type": "function"
    },
    {
      "inputs": [
        {
          "internalType": "uint256",
          "name": "_tokenId",
          "type": "uint256"
        }
      ],
      "name": "hashOf",
      "outputs": [
        {
          "internalType": "bytes32",
          "name": "",
          "type": "bytes32"
        }
      ],
      "stateMutability": "view",
      "type": "function",
      "constant": true
    },
    {
      "inputs": [
        {
          "internalType": "uint256",
          "name": "nonce",
          "type": "uint256"
        }
      ],
      "name": "mine",
      "outputs": [],
      "stateMutability": "payable",
      "type": "function",
      "payable": true
    }
  ],
  "bytecode": "0x60806040526528ed6103d000600e5561012c7fffffffffffffffffffffffffffffffffffffffffffffffffffffffffffffffff6200003e919062000315565b600f5560036010553480156200005357600080fd5b50604051620041c1380380620041c18339818101604052810190620000799190620002e9565b6040518060400160405280600b81526020017f43727970746f6e617574730000000000000000000000000000000000000000008152506040518060400160405280600681526020017f434e4155545300000000000000000000000000000000000000000000000000008152508160009080519060200190620000fd92919062000222565b5080600190805190602001906200011692919062000222565b50505060006200012b6200021a60201b60201c565b905080600a60006101000a81548173ffffffffffffffffffffffffffffffffffffffff021916908373ffffffffffffffffffffffffffffffffffffffff1602179055508073ffffffffffffffffffffffffffffffffffffffff16600073ffffffffffffffffffffffffffffffffffffffff167f8be0079c531659141344cd1fd0a4f28419497f9722a3daafe3b4186f6b6457e060405160405180910390a35080600c60006101000a81548173ffffffffffffffffffffffffffffffffffffffff021916908373ffffffffffffffffffffffffffffffffffffffff1602179055506000600b819055505062000439565b600033905090565b82805462000230906200038b565b90600052602060002090601f016020900481019282620002545760008555620002a0565b82601f106200026f57805160ff1916838001178555620002a0565b82800160010185558215620002a0579182015b828111156200029f57825182559160200191906001019062000282565b5b509050620002af9190620002b3565b5090565b5b80821115620002ce576000816000905550600101620002b4565b5090565b600081519050620002e3816200041f565b92915050565b600060208284031215620002fc57600080fd5b60006200030c84828501620002d2565b91505092915050565b6000620003228262000381565b91506200032f8362000381565b925082620003425762000341620003c1565b5b828204905092915050565b60006200035a8262000361565b9050919050565b600073ffffffffffffffffffffffffffffffffffffffff82169050919050565b6000819050919050565b60006002820490506001821680620003a457607f821691505b60208210811415620003bb57620003ba620003f0565b5b50919050565b7f4e487b7100000000000000000000000000000000000000000000000000000000600052601260045260246000fd5b7f4e487b7100000000000000000000000000000000000000000000000000000000600052602260045260246000fd5b6200042a816200034d565b81146200043657600080fd5b50565b613d7880620004496000396000f3fe6080604052600436106101405760003560e01c806370a08231116100b657806398b9a2dc1161006f57806398b9a2dc14610475578063a22cb4651461049e578063b88d4fde146104c7578063c87b56dd146104f0578063e985e9c51461052d578063f2fde38b1461056a57610140565b806370a0823114610363578063715018a6146103a05780637e551b75146103b757806388843613146103f45780638da5cb5b1461041f57806395d89b411461044a57610140565b806323b872dd1161010857806323b872dd1461023e5780632f745c591461026757806342842e0e146102a45780634d474898146102cd5780634f6ccce7146102e95780636352211e1461032657610140565b806301ffc9a71461014557806306fdde0314610182578063081812fc146101ad578063095ea7b3146101ea57806318160ddd14610213575b600080fd5b34801561015157600080fd5b5061016c600480360381019061016791906128c6565b610593565b6040516101799190612e38565b60405180910390f35b34801561018e57600080fd5b5061019761060d565b6040516101a49190612e6e565b60405180910390f35b3480156101b957600080fd5b506101d460048036038101906101cf9190612918565b61069f565b6040516101e19190612dd1565b60405180910390f35b3480156101f657600080fd5b50610211600480360381019061020c919061288a565b610724565b005b34801561021f57600080fd5b5061022861083c565b6040516102359190613130565b60405180910390f35b34801561024a57600080fd5b5061026560048036038101906102609190612784565b610849565b005b34801561027357600080fd5b5061028e6004803603810190610289919061288a565b6108a9565b60405161029b9190613130565b60405180910390f35b3480156102b057600080fd5b506102cb60048036038101906102c69190612784565b61094e565b005b6102e760048036038101906102e29190612918565b61096e565b005b3480156102f557600080fd5b50610310600480360381019061030b9190612918565b610bd2565b60405161031d9190613130565b60405180910390f35b34801561033257600080fd5b5061034d60048036038101906103489190612918565b610c69565b60405161035a9190612dd1565b60405180910390f35b34801561036f57600080fd5b5061038a600480360381019061038591906126f6565b610d1b565b6040516103979190613130565b60405180910390f35b3480156103ac57600080fd5b506103b5610dd3565b005b3480156103c357600080fd5b506103de60048036038101906103d99190612918565b610f10565b6040516103eb9190612e53565b60405180910390f35b34801561040057600080fd5b50610409610fa6565b6040516104169190612e53565b60405180910390f35b34801561042b57600080fd5b50610434610fac565b6040516104419190612dd1565b60405180910390f35b34801561045657600080fd5b5061045f610fd6565b60405161046c9190612e6e565b60405180910390f35b34801561048157600080fd5b5061049c6004803603810190610497919061271f565b611068565b005b3480156104aa57600080fd5b506104c560048036038101906104c0919061284e565b611128565b005b3480156104d357600080fd5b506104ee60048036038101906104e991906127d3565b6112a9565b005b3480156104fc57600080fd5b5061051760048036038101906105129190612918565b61130b565b6040516105249190612e6e565b60405180910390f35b34801561053957600080fd5b50610554600480360381019061054f9190612748565b6113b2565b6040516105619190612e38565b60405180910390f35b34801561057657600080fd5b50610591600480360381019061058c91906126f6565b611446565b005b60007f780e9d63000000000000000000000000000000000000000000000000000000007bffffffffffffffffffffffffffffffffffffffffffffffffffffffff1916827bffffffffffffffffffffffffffffffffffffffffffffffffffffffff191614806106065750610605826115f2565b5b9050919050565b60606000805461061c9061353c565b80601f01602080910402602001604051908101604052809291908181526020018280546106489061353c565b80156106955780601f1061066a57610100808354040283529160200191610695565b820191906000526020600020905b81548152906001019060200180831161067857829003601f168201915b5050505050905090565b60006106aa826116d4565b6106e9576040517f08c379a00000000000000000000000000000000000000000000000000000000081526004016106e090613010565b60405180910390fd5b6004600083815260200190815260200160002060009054906101000a900473ffffffffffffffffffffffffffffffffffffffff169050919050565b600061072f82610c69565b90508073ffffffffffffffffffffffffffffffffffffffff168373ffffffffffffffffffffffffffffffffffffffff1614156107a0576040517f08c379a0000000000000000000000000000000000000000000000000000000008152600401610797906130b0565b60405180910390fd5b8073ffffffffffffffffffffffffffffffffffffffff166107bf611740565b73ffffffffffffffffffffffffffffffffffffffff1614806107ee57506107ed816107e8611740565b6113b2565b5b61082d576040517f08c379a000000000000000000000000000000000000000000000000000000000815260040161082490612f90565b60405180910390fd5b6108378383611748565b505050565b6000600880549050905090565b61085a610854611740565b82611801565b610899576040517f08c379a0000000000000000000000000000000000000000000000000000000008152600401610890906130f0565b60405180910390fd5b6108a48383836118df565b505050565b60006108b483610d1b565b82106108f5576040517f08c379a00000000000000000000000000000000000000000000000000000000081526004016108ec90612e90565b60405180910390fd5b600660008473ffffffffffffffffffffffffffffffffffffffff1673ffffffffffffffffffffffffffffffffffffffff168152602001908152602001600020600083815260200190815260200160002054905092915050565b610969838383604051806020016040528060008152506112a9565b505050565b60006001600d8054905061098291906131e4565b9050600061098f82611b3b565b90506000816010546109a191906132be565b600f546109ae919061323a565b9050600d8211156109e1576001614000846109c99190613436565b6109d391906131e4565b816109de919061323a565b90505b6000600e5460018460026109f591906132be565b6109ff9190613436565b610a0991906133dc565b9050600033600b5487604051602001610a2493929190612d44565b604051602081830303815290604052805190602001209050828160001c10610a81576040517f08c379a0000000000000000000000000000000000000000000000000000000008152600401610a7890612ed0565b60405180910390fd5b81341015610ac4576040517f08c379a0000000000000000000000000000000000000000000000000000000008152600401610abb90613030565b60405180910390fd5b8042604051602001610ad7929190612d81565b60405160208183030381529060405280519060200120905080600b81905550600d819080600181540180825580915050600190039060005260206000200160009091909190915055610b293386611b7d565b847f5570ed3da2dab8635dcc918badc12e05d60cbc9185347ef0065ab7335568cdae82604051610b599190612e53565b60405180910390a2600c60009054906101000a900473ffffffffffffffffffffffffffffffffffffffff1673ffffffffffffffffffffffffffffffffffffffff166108fc349081150290604051600060405180830381858888f19350505050158015610bc9573d6000803e3d6000fd5b50505050505050565b6000610bdc61083c565b8210610c1d576040517f08c379a0000000000000000000000000000000000000000000000000000000008152600401610c1490613110565b60405180910390fd5b60088281548110610c57577f4e487b7100000000000000000000000000000000000000000000000000000000600052603260045260246000fd5b90600052602060002001549050919050565b6000806002600084815260200190815260200160002060009054906101000a900473ffffffffffffffffffffffffffffffffffffffff169050600073ffffffffffffffffffffffffffffffffffffffff168173ffffffffffffffffffffffffffffffffffffffff161415610d12576040517f08c379a0000000000000000000000000000000000000000000000000000000008152600401610d0990612fd0565b60405180910390fd5b80915050919050565b60008073ffffffffffffffffffffffffffffffffffffffff168273ffffffffffffffffffffffffffffffffffffffff161415610d8c576040517f08c379a0000000000000000000000000000000000000000000000000000000008152600401610d8390612fb0565b60405180910390fd5b600360008373ffffffffffffffffffffffffffffffffffffffff1673ffffffffffffffffffffffffffffffffffffffff168152602001908152602001600020549050919050565b610ddb611740565b73ffffffffffffffffffffffffffffffffffffffff16610df9610fac565b73ffffffffffffffffffffffffffffffffffffffff1614610e4f576040517f08c379a0000000000000000000000000000000000000000000000000000000008152600401610e4690613050565b60405180910390fd5b600073ffffffffffffffffffffffffffffffffffffffff16600a60009054906101000a900473ffffffffffffffffffffffffffffffffffffffff1673ffffffffffffffffffffffffffffffffffffffff167f8be0079c531659141344cd1fd0a4f28419497f9722a3daafe3b4186f6b6457e060405160405180910390a36000600a60006101000a81548173ffffffffffffffffffffffffffffffffffffffff021916908373ffffffffffffffffffffffffffffffffffffffff160217905550565b6000610f1b826116d4565b610f5a576040517f08c379a0000000000000000000000000000000000000000000000000000000008152600401610f51906130d0565b60405180910390fd5b600d8281548110610f94577f4e487b7100000000000000000000000000000000000000000000000000000000600052603260045260246000fd5b90600052602060002001549050919050565b600b5481565b6000600a60009054906101000a900473ffffffffffffffffffffffffffffffffffffffff16905090565b606060018054610fe59061353c565b80601f01602080910402602001604051908101604052809291908181526020018280546110119061353c565b801561105e5780601f106110335761010080835404028352916020019161105e565b820191906000526020600020905b81548152906001019060200180831161104157829003601f168201915b5050505050905090565b611070611740565b73ffffffffffffffffffffffffffffffffffffffff1661108e610fac565b73ffffffffffffffffffffffffffffffffffffffff16146110e4576040517f08c379a00000000000000000000000000000000000000000000000000000000081526004016110db90613050565b60405180910390fd5b80600c60006101000a81548173ffffffffffffffffffffffffffffffffffffffff021916908373ffffffffffffffffffffffffffffffffffffffff16021790555050565b611130611740565b73ffffffffffffffffffffffffffffffffffffffff168273ffffffffffffffffffffffffffffffffffffffff16141561119e576040517f08c379a000000000000000000000000000000000000000000000000000000000815260040161119590612f50565b60405180910390fd5b80600560006111ab611740565b73ffffffffffffffffffffffffffffffffffffffff1673ffffffffffffffffffffffffffffffffffffffff16815260200190815260200160002060008473ffffffffffffffffffffffffffffffffffffffff1673ffffffffffffffffffffffffffffffffffffffff16815260200190815260200160002060006101000a81548160ff0219169083151502179055508173ffffffffffffffffffffffffffffffffffffffff16611258611740565b73ffffffffffffffffffffffffffffffffffffffff167f17307eab39ab6107e8899845ad3d59bd9653f200f220920489ca2b5937696c318360405161129d9190612e38565b60405180910390a35050565b6112ba6112b4611740565b83611801565b6112f9576040517f08c379a00000000000000000000000000000000000000000000000000000000081526004016112f0906130f0565b60405180910390fd5b61130584848484611d4b565b50505050565b6060611316826116d4565b611355576040517f08c379a000000000000000000000000000000000000000000000000000000000815260040161134c90613090565b60405180910390fd5b600061135f611da7565b9050600081511161137f57604051806020016040528060008152506113aa565b8061138984611dbe565b60405160200161139a929190612dad565b6040516020818303038152906040525b915050919050565b6000600560008473ffffffffffffffffffffffffffffffffffffffff1673ffffffffffffffffffffffffffffffffffffffff16815260200190815260200160002060008373ffffffffffffffffffffffffffffffffffffffff1673ffffffffffffffffffffffffffffffffffffffff16815260200190815260200160002060009054906101000a900460ff16905092915050565b61144e611740565b73ffffffffffffffffffffffffffffffffffffffff1661146c610fac565b73ffffffffffffffffffffffffffffffffffffffff16146114c2576040517f08c379a00000000000000000000000000000000000000000000000000000000081526004016114b990613050565b60405180910390fd5b600073ffffffffffffffffffffffffffffffffffffffff168173ffffffffffffffffffffffffffffffffffffffff161415611532576040517f08c379a000000000000000000000000000000000000000000000000000000000815260040161152990612ef0565b60405180910390fd5b8073ffffffffffffffffffffffffffffffffffffffff16600a60009054906101000a900473ffffffffffffffffffffffffffffffffffffffff1673ffffffffffffffffffffffffffffffffffffffff167f8be0079c531659141344cd1fd0a4f28419497f9722a3daafe3b4186f6b6457e060405160405180910390a380600a60006101000a81548173ffffffffffffffffffffffffffffffffffffffff021916908373ffffffffffffffffffffffffffffffffffffffff16021790555050565b60007f80ac58cd000000000000000000000000000000000000000000000000000000007bffffffffffffffffffffffffffffffffffffffffffffffffffffffff1916827bffffffffffffffffffffffffffffffffffffffffffffffffffffffff191614806116bd57507f5b5e139f000000000000000000000000000000000000000000000000000000007bffffffffffffffffffffffffffffffffffffffffffffffffffffffff1916827bffffffffffffffffffffffffffffffffffffffffffffffffffffffff1916145b806116cd57506116cc82611f6b565b5b9050919050565b60008073ffffffffffffffffffffffffffffffffffffffff166002600084815260200190815260200160002060009054906101000a900473ffffffffffffffffffffffffffffffffffffffff1673ffffffffffffffffffffffffffffffffffffffff1614159050919050565b600033905090565b816004600083815260200190815260200160002060006101000a81548173ffffffffffffffffffffffffffffffffffffffff021916908373ffffffffffffffffffffffffffffffffffffffff160217905550808273ffffffffffffffffffffffffffffffffffffffff166117bb83610c69565b73ffffffffffffffffffffffffffffffffffffffff167f8c5be1e5ebec7d5bd14f71427d1e84f3dd0314c0f7b2291e5b200ac8c7c3b92560405160405180910390a45050565b600061180c826116d4565b61184b576040517f08c379a000000000000000000000000000000000000000000000000000000000815260040161184290612f70565b60405180910390fd5b600061185683610c69565b90508073ffffffffffffffffffffffffffffffffffffffff168473ffffffffffffffffffffffffffffffffffffffff1614806118c557508373ffffffffffffffffffffffffffffffffffffffff166118ad8461069f565b73ffffffffffffffffffffffffffffffffffffffff16145b806118d657506118d581856113b2565b5b91505092915050565b8273ffffffffffffffffffffffffffffffffffffffff166118ff82610c69565b73ffffffffffffffffffffffffffffffffffffffff1614611955576040517f08c379a000000000000000000000000000000000000000000000000000000000815260040161194c90613070565b60405180910390fd5b600073ffffffffffffffffffffffffffffffffffffffff168273ffffffffffffffffffffffffffffffffffffffff1614156119c5576040517f08c379a00000000000000000000000000000000000000000000000000000000081526004016119bc90612f30565b60405180910390fd5b6119d0838383611fd5565b6119db600082611748565b6001600360008573ffffffffffffffffffffffffffffffffffffffff1673ffffffffffffffffffffffffffffffffffffffff1681526020019081526020016000206000828254611a2b9190613436565b925050819055506001600360008473ffffffffffffffffffffffffffffffffffffffff1673ffffffffffffffffffffffffffffffffffffffff1681526020019081526020016000206000828254611a8291906131e4565b92505081905550816002600083815260200190815260200160002060006101000a81548173ffffffffffffffffffffffffffffffffffffffff021916908373ffffffffffffffffffffffffffffffffffffffff160217905550808273ffffffffffffffffffffffffffffffffffffffff168473ffffffffffffffffffffffffffffffffffffffff167fddf252ad1be2c89b69c2b068fc378daa952ba7f163c4a11628f55a4df523b3ef60405160405180910390a4505050565b60005b6000821115611b6957600282611b54919061323a565b91508080611b619061359f565b915050611b3e565b600181611b769190613436565b9050919050565b600073ffffffffffffffffffffffffffffffffffffffff168273ffffffffffffffffffffffffffffffffffffffff161415611bed576040517f08c379a0000000000000000000000000000000000000000000000000000000008152600401611be490612ff0565b60405180910390fd5b611bf6816116d4565b15611c36576040517f08c379a0000000000000000000000000000000000000000000000000000000008152600401611c2d90612f10565b60405180910390fd5b611c4260008383611fd5565b6001600360008473ffffffffffffffffffffffffffffffffffffffff1673ffffffffffffffffffffffffffffffffffffffff1681526020019081526020016000206000828254611c9291906131e4565b92505081905550816002600083815260200190815260200160002060006101000a81548173ffffffffffffffffffffffffffffffffffffffff021916908373ffffffffffffffffffffffffffffffffffffffff160217905550808273ffffffffffffffffffffffffffffffffffffffff16600073ffffffffffffffffffffffffffffffffffffffff167fddf252ad1be2c89b69c2b068fc378daa952ba7f163c4a11628f55a4df523b3ef60405160405180910390a45050565b611d568484846118df565b611d62848484846120e9565b611da1576040517f08c379a0000000000000000000000000000000000000000000000000000000008152600401611d9890612eb0565b60405180910390fd5b50505050565b606060405180602001604052806000815250905090565b60606000821415611e06576040518060400160405280600181526020017f30000000000000000000000000000000000000000000000000000000000000008152509050611f66565b600082905060005b60008214611e38578080611e219061359f565b915050600a82611e31919061323a565b9150611e0e565b60008167ffffffffffffffff811115611e7a577f4e487b7100000000000000000000000000000000000000000000000000000000600052604160045260246000fd5b6040519080825280601f01601f191660200182016040528015611eac5781602001600182028036833780820191505090505b5090505b60008514611f5f57600182611ec59190613436565b9150600a85611ed49190613620565b6030611ee091906131e4565b60f81b818381518110611f1c577f4e487b7100000000000000000000000000000000000000000000000000000000600052603260045260246000fd5b60200101907effffffffffffffffffffffffffffffffffffffffffffffffffffffffffffff1916908160001a905350600a85611f58919061323a565b9450611eb0565b8093505050505b919050565b60007f01ffc9a7000000000000000000000000000000000000000000000000000000007bffffffffffffffffffffffffffffffffffffffffffffffffffffffff1916827bffffffffffffffffffffffffffffffffffffffffffffffffffffffff1916149050919050565b611fe0838383612280565b600073ffffffffffffffffffffffffffffffffffffffff168373ffffffffffffffffffffffffffffffffffffffff1614156120235761201e81612285565b612062565b8173ffffffffffffffffffffffffffffffffffffffff168373ffffffffffffffffffffffffffffffffffffffff16146120615761206083826122ce565b5b5b600073ffffffffffffffffffffffffffffffffffffffff168273ffffffffffffffffffffffffffffffffffffffff1614156120a5576120a08161243b565b6120e4565b8273ffffffffffffffffffffffffffffffffffffffff168273ffffffffffffffffffffffffffffffffffffffff16146120e3576120e2828261257e565b5b5b505050565b600061210a8473ffffffffffffffffffffffffffffffffffffffff166125fd565b15612273578373ffffffffffffffffffffffffffffffffffffffff1663150b7a02612133611740565b8786866040518563ffffffff1660e01b81526004016121559493929190612dec565b602060405180830381600087803b15801561216f57600080fd5b505af19250505080156121a057506040513d601f19601f8201168201806040525081019061219d91906128ef565b60015b612223573d80600081146121d0576040519150601f19603f3d011682016040523d82523d6000602084013e6121d5565b606091505b5060008151141561221b576040517f08c379a000000000000000000000000000000000000000000000000000000000815260040161221290612eb0565b60405180910390fd5b805181602001fd5b63150b7a0260e01b7bffffffffffffffffffffffffffffffffffffffffffffffffffffffff1916817bffffffffffffffffffffffffffffffffffffffffffffffffffffffff191614915050612278565b600190505b949350505050565b505050565b6008805490506009600083815260200190815260200160002081905550600881908060018154018082558091505060019003906000526020600020016000909190919091505550565b600060016122db84610d1b565b6122e59190613436565b90506000600760008481526020019081526020016000205490508181146123ca576000600660008673ffffffffffffffffffffffffffffffffffffffff1673ffffffffffffffffffffffffffffffffffffffff168152602001908152602001600020600084815260200190815260200160002054905080600660008773ffffffffffffffffffffffffffffffffffffffff1673ffffffffffffffffffffffffffffffffffffffff168152602001908152602001600020600084815260200190815260200160002081905550816007600083815260200190815260200160002081905550505b6007600084815260200190815260200160002060009055600660008573ffffffffffffffffffffffffffffffffffffffff1673ffffffffffffffffffffffffffffffffffffffff16815260200190815260200160002060008381526020019081526020016000206000905550505050565b6000600160088054905061244f9190613436565b90506000600960008481526020019081526020016000205490506000600883815481106124a5577f4e487b7100000000000000000000000000000000000000000000000000000000600052603260045260246000fd5b9060005260206000200154905080600883815481106124ed577f4e487b7100000000000000000000000000000000000000000000000000000000600052603260045260246000fd5b906000526020600020018190555081600960008381526020019081526020016000208190555060096000858152602001908152602001600020600090556008805480612562577f4e487b7100000000000000000000000000000000000000000000000000000000600052603160045260246000fd5b6001900381819060005260206000200160009055905550505050565b600061258983610d1b565b905081600660008573ffffffffffffffffffffffffffffffffffffffff1673ffffffffffffffffffffffffffffffffffffffff168152602001908152602001600020600083815260200190815260200160002081905550806007600084815260200190815260200160002081905550505050565b600080823b905060008111915050919050565b600061262361261e84613170565b61314b565b90508281526020810184848401111561263b57600080fd5b6126468482856134fa565b509392505050565b60008135905061265d81613ccf565b92915050565b60008135905061267281613ce6565b92915050565b60008135905061268781613cfd565b92915050565b60008135905061269c81613d14565b92915050565b6000815190506126b181613d14565b92915050565b600082601f8301126126c857600080fd5b81356126d8848260208601612610565b91505092915050565b6000813590506126f081613d2b565b92915050565b60006020828403121561270857600080fd5b60006127168482850161264e565b91505092915050565b60006020828403121561273157600080fd5b600061273f84828501612663565b91505092915050565b6000806040838503121561275b57600080fd5b60006127698582860161264e565b925050602061277a8582860161264e565b9150509250929050565b60008060006060848603121561279957600080fd5b60006127a78682870161264e565b93505060206127b88682870161264e565b92505060406127c9868287016126e1565b9150509250925092565b600080600080608085870312156127e957600080fd5b60006127f78782880161264e565b94505060206128088782880161264e565b9350506040612819878288016126e1565b925050606085013567ffffffffffffffff81111561283657600080fd5b612842878288016126b7565b91505092959194509250565b6000806040838503121561286157600080fd5b600061286f8582860161264e565b925050602061288085828601612678565b9150509250929050565b6000806040838503121561289d57600080fd5b60006128ab8582860161264e565b92505060206128bc858286016126e1565b9150509250929050565b6000602082840312156128d857600080fd5b60006128e68482850161268d565b91505092915050565b60006020828403121561290157600080fd5b600061290f848285016126a2565b91505092915050565b60006020828403121561292a57600080fd5b6000612938848285016126e1565b91505092915050565b61294a8161346a565b82525050565b61296161295c8261346a565b6135e8565b82525050565b6129708161348e565b82525050565b61297f8161349a565b82525050565b6129966129918261349a565b6135fa565b82525050565b60006129a7826131a1565b6129b181856131b7565b93506129c1818560208601613509565b6129ca8161370d565b840191505092915050565b60006129e0826131ac565b6129ea81856131c8565b93506129fa818560208601613509565b612a038161370d565b840191505092915050565b6000612a19826131ac565b612a2381856131d9565b9350612a33818560208601613509565b80840191505092915050565b6000612a4c602b836131c8565b9150612a5782613738565b604082019050919050565b6000612a6f6032836131c8565b9150612a7a82613787565b604082019050919050565b6000612a92603a836131c8565b9150612a9d826137d6565b604082019050919050565b6000612ab56026836131c8565b9150612ac082613825565b604082019050919050565b6000612ad8601c836131c8565b9150612ae382613874565b602082019050919050565b6000612afb6024836131c8565b9150612b068261389d565b604082019050919050565b6000612b1e6019836131c8565b9150612b29826138ec565b602082019050919050565b6000612b41602c836131c8565b9150612b4c82613915565b604082019050919050565b6000612b646038836131c8565b9150612b6f82613964565b604082019050919050565b6000612b87602a836131c8565b9150612b92826139b3565b604082019050919050565b6000612baa6029836131c8565b9150612bb582613a02565b604082019050919050565b6000612bcd6020836131c8565b9150612bd882613a51565b602082019050919050565b6000612bf0602c836131c8565b9150612bfb82613a7a565b604082019050919050565b6000612c136018836131c8565b9150612c1e82613ac9565b602082019050919050565b6000612c366020836131c8565b9150612c4182613af2565b602082019050919050565b6000612c596029836131c8565b9150612c6482613b1b565b604082019050919050565b6000612c7c602f836131c8565b9150612c8782613b6a565b604082019050919050565b6000612c9f6021836131c8565b9150612caa82613bb9565b604082019050919050565b6000612cc26020836131c8565b9150612ccd82613c08565b602082019050919050565b6000612ce56031836131c8565b9150612cf082613c31565b604082019050919050565b6000612d08602c836131c8565b9150612d1382613c80565b604082019050919050565b612d27816134f0565b82525050565b612d3e612d39826134f0565b613616565b82525050565b6000612d508286612950565b601482019150612d608285612985565b602082019150612d708284612d2d565b602082019150819050949350505050565b6000612d8d8285612985565b602082019150612d9d8284612d2d565b6020820191508190509392505050565b6000612db98285612a0e565b9150612dc58284612a0e565b91508190509392505050565b6000602082019050612de66000830184612941565b92915050565b6000608082019050612e016000830187612941565b612e0e6020830186612941565b612e1b6040830185612d1e565b8181036060830152612e2d818461299c565b905095945050505050565b6000602082019050612e4d6000830184612967565b92915050565b6000602082019050612e686000830184612976565b92915050565b60006020820190508181036000830152612e8881846129d5565b905092915050565b60006020820190508181036000830152612ea981612a3f565b9050919050565b60006020820190508181036000830152612ec981612a62565b9050919050565b60006020820190508181036000830152612ee981612a85565b9050919050565b60006020820190508181036000830152612f0981612aa8565b9050919050565b60006020820190508181036000830152612f2981612acb565b9050919050565b60006020820190508181036000830152612f4981612aee565b9050919050565b60006020820190508181036000830152612f6981612b11565b9050919050565b60006020820190508181036000830152612f8981612b34565b9050919050565b60006020820190508181036000830152612fa981612b57565b9050919050565b60006020820190508181036000830152612fc981612b7a565b9050919050565b60006020820190508181036000830152612fe981612b9d565b9050919050565b6000602082019050818103600083015261300981612bc0565b9050919050565b6000602082019050818103600083015261302981612be3565b9050919050565b6000602082019050818103600083015261304981612c06565b9050919050565b6000602082019050818103600083015261306981612c29565b9050919050565b6000602082019050818103600083015261308981612c4c565b9050919050565b600060208201905081810360008301526130a981612c6f565b9050919050565b600060208201905081810360008301526130c981612c92565b9050919050565b600060208201905081810360008301526130e981612cb5565b9050919050565b6000602082019050818103600083015261310981612cd8565b9050919050565b6000602082019050818103600083015261312981612cfb565b9050919050565b60006020820190506131456000830184612d1e565b92915050565b6000613155613166565b9050613161828261356e565b919050565b6000604051905090565b600067ffffffffffffffff82111561318b5761318a6136de565b5b6131948261370d565b9050602081019050919050565b600081519050919050565b600081519050919050565b600082825260208201905092915050565b600082825260208201905092915050565b600081905092915050565b60006131ef826134f0565b91506131fa836134f0565b9250827fffffffffffffffffffffffffffffffffffffffffffffffffffffffffffffffff0382111561322f5761322e613651565b5b828201905092915050565b6000613245826134f0565b9150613250836134f0565b9250826132605761325f613680565b5b828204905092915050565b6000808291508390505b60018511156132b55780860481111561329157613290613651565b5b60018516156132a05780820291505b80810290506132ae8561372b565b9450613275565b94509492505050565b60006132c9826134f0565b91506132d4836134f0565b92506133017fffffffffffffffffffffffffffffffffffffffffffffffffffffffffffffffff8484613309565b905092915050565b60008261331957600190506133d5565b8161332757600090506133d5565b816001811461333d576002811461334757613376565b60019150506133d5565b60ff84111561335957613358613651565b5b8360020a9150848211156133705761336f613651565b5b506133d5565b5060208310610133831016604e8410600b84101617156133ab5782820a9050838111156133a6576133a5613651565b5b6133d5565b6133b8848484600161326b565b925090508184048111156133cf576133ce613651565b5b81810290505b9392505050565b60006133e7826134f0565b91506133f2836134f0565b9250817fffffffffffffffffffffffffffffffffffffffffffffffffffffffffffffffff048311821515161561342b5761342a613651565b5b828202905092915050565b6000613441826134f0565b915061344c836134f0565b92508282101561345f5761345e613651565b5b828203905092915050565b6000613475826134d0565b9050919050565b6000613487826134d0565b9050919050565b60008115159050919050565b6000819050919050565b60007fffffffff0000000000000000000000000000000000000000000000000000000082169050919050565b600073ffffffffffffffffffffffffffffffffffffffff82169050919050565b6000819050919050565b82818337600083830152505050565b60005b8381101561352757808201518184015260208101905061350c565b83811115613536576000848401525b50505050565b6000600282049050600182168061355457607f821691505b60208210811415613568576135676136af565b5b50919050565b6135778261370d565b810181811067ffffffffffffffff82111715613596576135956136de565b5b80604052505050565b60006135aa826134f0565b91507fffffffffffffffffffffffffffffffffffffffffffffffffffffffffffffffff8214156135dd576135dc613651565b5b600182019050919050565b60006135f382613604565b9050919050565b6000819050919050565b600061360f8261371e565b9050919050565b6000819050919050565b600061362b826134f0565b9150613636836134f0565b92508261364657613645613680565b5b828206905092915050565b7f4e487b7100000000000000000000000000000000000000000000000000000000600052601160045260246000fd5b7f4e487b7100000000000000000000000000000000000000000000000000000000600052601260045260246000fd5b7f4e487b7100000000000000000000000000000000000000000000000000000000600052602260045260246000fd5b7f4e487b7100000000000000000000000000000000000000000000000000000000600052604160045260246000fd5b6000601f19601f8301169050919050565b60008160601b9050919050565b60008160011c9050919050565b7f455243373231456e756d657261626c653a206f776e657220696e646578206f7560008201527f74206f6620626f756e6473000000000000000000000000000000000000000000602082015250565b7f4552433732313a207472616e7366657220746f206e6f6e20455243373231526560008201527f63656976657220696d706c656d656e7465720000000000000000000000000000602082015250565b7f54686973206861736820646f6573206e6f742066616c6c20756e64657220746860008201527f6520646966666963756c74792e204b656570206d696e696e6721000000000000602082015250565b7f4f776e61626c653a206e6577206f776e657220697320746865207a65726f206160008201527f6464726573730000000000000000000000000000000000000000000000000000602082015250565b7f4552433732313a20746f6b656e20616c7265616479206d696e74656400000000600082015250565b7f4552433732313a207472616e7366657220746f20746865207a65726f2061646460008201527f7265737300000000000000000000000000000000000000000000000000000000602082015250565b7f4552433732313a20617070726f766520746f2063616c6c657200000000000000600082015250565b7f4552433732313a206f70657261746f7220717565727920666f72206e6f6e657860008201527f697374656e7420746f6b656e0000000000000000000000000000000000000000602082015250565b7f4552433732313a20617070726f76652063616c6c6572206973206e6f74206f7760008201527f6e6572206e6f7220617070726f76656420666f7220616c6c0000000000000000602082015250565b7f4552433732313a2062616c616e636520717565727920666f7220746865207a6560008201527f726f206164647265737300000000000000000000000000000000000000000000602082015250565b7f4552433732313a206f776e657220717565727920666f72206e6f6e657869737460008201527f656e7420746f6b656e0000000000000000000000000000000000000000000000602082015250565b7f4552433732313a206d696e7420746f20746865207a65726f2061646472657373600082015250565b7f4552433732313a20617070726f76656420717565727920666f72206e6f6e657860008201527f697374656e7420746f6b656e0000000000000000000000000000000000000000602082015250565b7f436f7374206f6620746f6b656e206973206e6f74206d65740000000000000000600082015250565b7f4f776e61626c653a2063616c6c6572206973206e6f7420746865206f776e6572600082015250565b7f4552433732313a207472616e73666572206f6620746f6b656e2074686174206960008201527f73206e6f74206f776e0000000000000000000000000000000000000000000000602082015250565b7f4552433732314d657461646174613a2055524920717565727920666f72206e6f60008201527f6e6578697374656e7420746f6b656e0000000000000000000000000000000000602082015250565b7f4552433732313a20617070726f76616c20746f2063757272656e74206f776e6560008201527f7200000000000000000000000000000000000000000000000000000000000000602082015250565b7f496e76616c696420746f6b656e49643a20646f6573206e6f742065786973742e600082015250565b7f4552433732313a207472616e736665722063616c6c6572206973206e6f74206f60008201527f776e6572206e6f7220617070726f766564000000000000000000000000000000602082015250565b7f455243373231456e756d657261626c653a20676c6f62616c20696e646578206f60008201527f7574206f6620626f756e64730000000000000000000000000000000000000000602082015250565b613cd88161346a565b8114613ce357600080fd5b50565b613cef8161347c565b8114613cfa57600080fd5b50565b613d068161348e565b8114613d1157600080fd5b50565b613d1d816134a4565b8114613d2857600080fd5b50565b613d34816134f0565b8114613d3f57600080fd5b5056fea2646970667358221220602c96abd7e50691bbb8b2fdae8e86932c88bf1502efe5d1f97be423d6dc140c64736f6c63430008030033",
  "immutableReferences": {},
  "source": "// SPDX-License-Identifier: MIT\r\npragma solidity ^0.8.0;\r\n\r\nimport \"@openzeppelin/contracts/token/ERC721/ERC721.sol\";\r\nimport \"@openzeppelin/contracts/token/ERC721/extensions/ERC721Enumerable.sol\";\r\nimport \"@openzeppelin/contracts/access/Ownable.sol\";\r\n\r\ncontract Cryptonauts is ERC721Enumerable, Ownable {\r\n    bytes32 public LAST_HASH;\r\n    address payable wallet;\r\n\r\n    constructor(address payable _wallet) ERC721(\"Cryptonauts\", \"CNAUTS\") {\r\n        wallet = _wallet;\r\n        LAST_HASH = \"\";\r\n    }\r\n\r\n    function changeWallet(address payable _newWallet) public onlyOwner {\r\n        wallet = _newWallet;\r\n    }\r\n\r\n    // This is our `blockchain` (hash + block.timestamp)\r\n    bytes32[] TOKEN_HASHES;\r\n\r\n    // Mining Vars\r\n    uint BASE_COST = 0.000045 ether;\r\n    uint BASE_DIFFICULTY = uint(0xffffffffffffffffffffffffffffffffffffffffffffffffffffffffffffffff)/uint(300);\r\n    uint DIFFICULTY_RAMP = 3;\r\n\r\n    //Mining Events\r\n    event Mined(uint indexed _tokenId, bytes32 hash);\r\n\r\n    // Mining  Functions\r\n    function generationOf(uint _tokenId) private pure returns(uint generation){\r\n        for(generation = 0; _tokenId > 0; generation++){\r\n            _tokenId /= 2;\r\n        }\r\n        return generation - 1;\r\n    }\r\n\r\n    function hashOf(uint _tokenId) public view returns(bytes32){\r\n        require(_exists(_tokenId), \"Invalid tokenId: does not exist.\");\r\n        return TOKEN_HASHES[_tokenId];\r\n    }\r\n\r\n    function mine(uint nonce) external payable {\r\n        uint tokenId = TOKEN_HASHES.length + 1;\r\n        uint generation = generationOf(tokenId);\r\n\r\n        uint difficulty = BASE_DIFFICULTY / (DIFFICULTY_RAMP**generation);\r\n        if(generation > 13){ //Token 16384\r\n            difficulty /= (tokenId - 2**14 + 1);\r\n        }\r\n\r\n        uint cost = (2**generation - 1)* BASE_COST;\r\n\r\n        // Confirm the hash is below is target\r\n        bytes32 hash;\r\n        hash = keccak256(abi.encodePacked(\r\n                msg.sender,\r\n                LAST_HASH,\r\n                nonce\r\n            ));\r\n\r\n        require(uint(hash) < difficulty, \"This hash does not fall under the difficulty. Keep mining!\");\r\n        require(msg.value >=cost, \"Cost of token is not met\");\r\n\r\n        // Get new hash we will emit to miners\r\n        hash = keccak256(abi.encodePacked(hash, block.timestamp));\r\n        LAST_HASH = hash;\r\n        TOKEN_HASHES.push(hash);\r\n\r\n        _mint(msg.sender, tokenId);\r\n\r\n        emit Mined(tokenId, hash);\r\n        wallet.transfer(msg.value);\r\n    }\r\n}",
  "sourcePath": "C:/Users/dev/Desktop/NFTFun/Cryptonauts/contracts/Cryptonauts.sol",
  "compiler": {
    "name": "solc",
    "version": "0.8.3+commit.8d00100c.Emscripten.clang"
  },
  "schemaVersion": "3.3.4",
  "updatedAt": "2021-03-26T20:23:11.016Z",
  "networkType": "ethereum",
  "devdoc": {
    "kind": "dev",
    "methods": {
      "approve(address,uint256)": {
        "details": "See {IERC721-approve}."
      },
      "balanceOf(address)": {
        "details": "See {IERC721-balanceOf}."
      },
      "getApproved(uint256)": {
        "details": "See {IERC721-getApproved}."
      },
      "isApprovedForAll(address,address)": {
        "details": "See {IERC721-isApprovedForAll}."
      },
      "name()": {
        "details": "See {IERC721Metadata-name}."
      },
      "owner()": {
        "details": "Returns the address of the current owner."
      },
      "ownerOf(uint256)": {
        "details": "See {IERC721-ownerOf}."
      },
      "renounceOwnership()": {
        "details": "Leaves the contract without owner. It will not be possible to call `onlyOwner` functions anymore. Can only be called by the current owner. NOTE: Renouncing ownership will leave the contract without an owner, thereby removing any functionality that is only available to the owner."
      },
      "safeTransferFrom(address,address,uint256)": {
        "details": "See {IERC721-safeTransferFrom}."
      },
      "safeTransferFrom(address,address,uint256,bytes)": {
        "details": "See {IERC721-safeTransferFrom}."
      },
      "setApprovalForAll(address,bool)": {
        "details": "See {IERC721-setApprovalForAll}."
      },
      "supportsInterface(bytes4)": {
        "details": "See {IERC165-supportsInterface}."
      },
      "symbol()": {
        "details": "See {IERC721Metadata-symbol}."
      },
      "tokenByIndex(uint256)": {
        "details": "See {IERC721Enumerable-tokenByIndex}."
      },
      "tokenOfOwnerByIndex(address,uint256)": {
        "details": "See {IERC721Enumerable-tokenOfOwnerByIndex}."
      },
      "tokenURI(uint256)": {
        "details": "See {IERC721Metadata-tokenURI}."
      },
      "totalSupply()": {
        "details": "See {IERC721Enumerable-totalSupply}."
      },
      "transferFrom(address,address,uint256)": {
        "details": "See {IERC721-transferFrom}."
      },
      "transferOwnership(address)": {
        "details": "Transfers ownership of the contract to a new account (`newOwner`). Can only be called by the current owner."
      }
    },
    "version": 1
  },
  "userdoc": {
    "kind": "user",
    "methods": {},
    "version": 1
  }
}